:020000040000FA
:1000000098020010690100007101000073010000F6
:100010007501000077010000790100000000000078
:100020000000000000000000000000007B01000054
:100030007D010000000000007F0100008101000040
:1000400083010000830100008301000083010000A0
:100050008301000083010000830100008301000090
:100060008301000083010000830100008301000080
:100070008301000083010000830100008301000070
:100080008301000083010000830100008301000060
:100090008301000083010000830100008301000050
:1000A0008301000083010000830100008301000040
:1000B0008301000083010000830100008301000030
:1000C00083010000830100008301000000F002F8BA
:1000D00000F03AF80AA090E8000C82448344AAF1A8
:1000E0000107DA4501D100F02FF8AFF2090EBAE8A6
:1000F0000F0013F0010F18BFFB1A43F0010318475C
:1001000080140000A0140000103A24BF78C878C101
:10011000FAD8520724BF30C830C144BF04680C600D
:10012000704700000023002400250026103A28BF55
:1001300078C1FBD8520728BF30C148BF0B60704759
:100140001FB51FBD10B510BD00F07CFB1146FFF7B9
:10015000F7FF00F0FFFA00F0B3F803B4FFF7F2FF87
:1001600003BC00F0B3F80000094880470948004785
:10017000FEE7FEE7FEE7FEE7FEE7FEE7FEE7FEE757
:10018000FEE7FEE704480549034A054B70470000B7
:10019000A9040000CD000000980000109802001093
:1001A0009800001053EA020C00F069802DE9F04B32
:1001B0004FF00006002B1FBFB3FA83F503FA05F4D6
:1001C00024FA05F65E4012BF1643B2FA82F502FA2F
:1001D00005F4C5F120051EBF22FA05FC44EA0C0413
:1001E000203556EA044C4FEA144418BF641C4FF003
:1001F00000084FF00009904271EB030C39D300293D
:1002000019BFB1FA81F701FA07F6B0FA80F700FAE0
:1002100007F6C7F120071EBF20FA07FC46EA0C06C6
:100220002037B6FBF4FCA7EB0507103F07F01F0BC8
:10023000CBF120060CFA0BFB2CFA06F644BFB346B2
:100240000026202FA4BF5E464FF0000B5BEA060C91
:1002500008BF4FF0010B19EB0B09ABFB027C48EB1D
:100260000608C01B06FB02CC0BFB03CC71EB0C0198
:10027000C1E70B46024641464846BDE8F08B13B540
:100280004FF000004FF00001AFF30080BDE81C40CC
:10029000704770477047704710B500F009F8006864
:1002A00010BD10B5044600F003F8046010BD000056
:1002B00000487047380000100048704738000010B0
:1002C0000446AFF300802046FFF747FF014918209E
:1002D000ABBEFEE72600020070470808A0F500113B
:1002E0004FEA3101704791EA030F10B581F00041E8
:1002F00000F1568383F0004300F08ABEFFFFFFFF4A
:100300002DE9F047B1480068C0F3016003287CD1B3
:10031000AF48006810F0030006D0012833D002284F
:100320005FD003282ED100E000BFA8480068C0F3CA
:10033000074000F101044FF00201A648D0F8880000
:10034000C0F30E0000F10100A1FB0001A24B4FF031
:10035000000CA0FB037901FB039100FB0C1122466A
:1003600063463846FFF71EFF05469C480068C0B24A
:1003700000F1010422464FF000032846FFF712FF68
:10038000974908605DE091480068C0F3074000F1BC
:1003900001044FF002018F48D0F88800C0F30E002E
:1003A00000F10100A1FB00108E4A4FF0000CA1FBF0
:1003B000027900FB029001FB0C012246634638469D
:1003C000FFF7F0FE054685480068C0B200F1010461
:1003D00022464FF000032846FFF7E4FE80490860FC
:1003E0002FE07A480068C0F3074000F101044FF0A5
:1003F00002017848D0F88800C0F30E0000F1010037
:10040000A1FB00124FF4004000E01BE04FF000039E
:10041000A1FB007902FB009001FB03012246384654
:10042000FFF7C0FE05466D480068C0B200F1010448
:1004300022464FF000032846FFF7B4FE68490860E3
:1004400000BF2FE06248006810F0030006D00128CA
:1004500010D0022819D0032823D100E000BF5F4844
:100460000068C0B200F101005B49B1FBF0F05C49EB
:10047000086016E059480068C0B200F1010059490F
:10048000B1FBF0F0564908600BE054480068C0B278
:1004900000F101004FF40041B1FBF0F05049086059
:1004A00000BF00BFBDE8F08720204F4908604948E1
:1004B000D0F8A00110F0200F05D000BF4A48006816
:1004C00010F0400FFAD00320444908604FF00000BC
:1004D0004049C1F8A801454908604FF001003C4976
:1004E00008604348434908604FF0AA004249086049
:1004F0004FF0550008604FF00100404908604FF090
:10050000AA003D4908604FF055003249C1F88C00FF
:1005100000BF2E48006810F0806FFAD003203749E2
:1005200008604FF0AA002B49C1F88C004FF055002D
:100530003149086000BF2548006800F04070B0F104
:10054000407FF8D123202E4908604FF0AA002149AE
:10055000C1F8AC004FF055002A4908604FF0010087
:10056000294908604FF0AA00264908604FF055005D
:100570001849C1F8AC0000BF2448006810F4806F2F
:10058000FAD00320204908604FF0AA001149C1F8B1
:10059000AC004FF055001B49086000BF1B480068C5
:1005A00000F44070B0F5407FF8D11948194908604F
:1005B0004FF000000749C1F8C8010846006820F460
:1005C000704040F4804008607047000088C00F40D1
:1005D0000CC10F4000C00F4000093D0004C10F4096
:1005E00000000010001BB700A0C10F40ACC10F40BD
:1005F0006300050084C00F408CC00F4080C00F40D6
:10060000A4C00F40ACC00F40A0C00F40A8C00F4016
:10061000DE872804C4C00F4002204FF0402148600C
:10062000C86049208861002008672020C863042032
:100630004861012048607047022075494860C860E1
:100640000020886108671020C863002048610120ED
:10065000486070472DE9FE4F83466E49584600F0CA
:10066000E5FD054600F0A4FE8146584600F0B2FDC7
:1006700007460022684B00F00BF9054600F088FBA6
:100680008246584600F0A6FD07460022634B00F064
:10069000FFF8054600F04AF900906149009800F023
:1006A000A3FE00905B49009800F0C0FD054600F0F5
:1006B0007FFE0290009800F08DFD07460022564B09
:1006C00000F0E6F8054600F063FB01900021554874
:1006D000C1825549019831F8200052492039888259
:1006E000002400E0641C642CFCDB80214D48C182A6
:1006F0004D49029831F820004A4920398882002467
:1007000000E0641C642CFCDB4FF480714548C1821E
:10071000454830F82A00434920398882002400E007
:10072000641C642CFCDB4FF4C0713E48C1823E481F
:1007300030F829003B4920398882002400E0641CFD
:10074000642CFCDB002400E0641CB4F57A7FFBDB46
:10075000BDE8FE8FFFF7A8FEFFF7D2FD3348006823
:1007600033490840314908600846406820F00300DA
:1007700048600846C06820F47F10C86048F6F070F2
:100780002849203908604FF0F06008623EE04FF4DD
:100790000040244920398861FFF73EFF00BF4FF039
:1007A0004020C06B10F0010FF9D002204FF0402123
:1007B000486080031B492039C86100BF19482038B0
:1007C000406910F4803FF9D0FFF736FF00BF1548AD
:1007D0002038406910F4803FF9D100200C4948606E
:1007E00008468068134908600846006800F0FFFA70
:1007F0000646114A114B00F073F9044600F096F8D2
:100800000F49086008460068FFF724FFBFE70000B3
:100810000080004000002041000024400000F03F24
:100820000000C84220C009201000001000C0024093
:10083000FF00003F0400001048E17A14AE274D404D
:10084000080000107546FFF737FDAE460500694603
:10085000534620F00700854618B020B5FFF792FCFC
:10086000BDE820404FF000064FF000074FF00008B1
:100870004FF0000B21F00701AC46ACE8C009ACE832
:10088000C009ACE8C009ACE8C0098D46704700005B
:1008900070B514461D460E46002814BF01210021E4
:1008A000314321F00041C1F17F6101F1E041C90F05
:1008B00016D1002C14BF01210021294321F0004151
:1008C000C1F17F6101F1E041C90F09D11649B1EBD6
:1008D000460F08BF00281CD0690008BF002C18D0A4
:1008E000314600F0E5FA024640F2FF7030EA11505E
:1008F0000DD0F017B0EBE17F09D0084665F31E007C
:1009000084460B4620466146FFF7EDFC0246104642
:1009100070BD0120FFF7C5FC0022BDE87040134602
:100920001046114600F0DCB80000E0FF21F0004264
:10093000A2F16052B2F5801F01F0004328BFD2F14E
:100940007F6C0BD95FEA001C43EAC20242EB507095
:1009500018BF704728BF20F001007047B2F5801F14
:10096000BCBF184670474FEA410C1CF5001F02D26D
:10097000084600F000BE70B500F04CFA0000008997
:10098000FFF7F6BF4FF00040A0F580007047000071
:1009900010B591EA030F48BF83F0004300F138839C
:1009A000841A71EB030C05D2121943EB0C03001BE4
:1009B00061EB0C01DFF824E14FEA1154A4EB135C66
:1009C0001EEA430F18BF9EEA445F73D023EA0E036A
:1009D000DCF1200E21EA045143F4801332D322FAD1
:1009E0000CFE10EB0E0023FA0CFE41EB0E01CCF1D5
:1009F000200E03FA0EFE10EB0E0051F10001B1F5CE
:100A0000801FCCF1200E32D201EB045112FA0EF20B
:100A1000BDE8104058BF7047401C38BF5FEA420233
:100A200018BF7047002814BF20F0010041F10001F9
:100A30004FEA410313F5001F38BF7047A1F1C041D1
:100A4000FFF74BBC012A43EB0302ACF1200CDCF1B5
:100A50001F0E32BF4FF0000E23FA0CF310EB030011
:100A600041EB0451B4EB115FD0D0A1EB045101F57F
:100A7000801149085FEA300001EB04510ED350F1B8
:100A8000000038BF12FA0EFE08D1BDE81040C9E7D9
:100A9000401C38BF5FEA4202CAD1C3E7BDE810403C
:100AA0004FEA410313F5001F38BF7047A1F1C04161
:100AB000FFF713BC9EEA445F08D011EA5E0FBDE861
:100AC000104004BF01F0004100207047BDE8104015
:100AD00070B500F09FF900BF64FBBE3E0000E0FF70
:100AE0002DE9C04130B4DFF8A0C23CEA111418BFB0
:100AF0003CEA131400F0EC8081EA03051CEA1114AF
:100B000044EAD57418BF1CEA131500F0C780A4EBA3
:100B100005044FF0004545EAC12145EAC32341EAF7
:100B2000505143EA525304F17F74994204F5003462
:100B30004FEAC0204FEAC22208BF904200F09C80DA
:100B40004FEA13650FF24016765D4FEA134506FB38
:100B500005F7C7F1807706FB07F74FEAD737A7FB02
:100B600003687642C8F58038A7FB06CE38BFA8F1E7
:100B7000010807FB08E64FF0000EA6FB028CE6FB1F
:100B800003CEDCF1000CCEF1004E38BFAEF1010E09
:100B9000A6FB0C584FF000074FF00005E6FB0E8750
:100BA000A1FB08C6A0FB07CE16EB0E0645F100051B
:100BB000E1FB076515F1E04E7EBFA4F580345FEAE6
:100BC00046066D4116F1800745F100054FEA1727EB
:100BD0004FEA066647EA0567A6F1DE46B6F1805F92
:100BE0004FEA15251FD9384624F0010C05EBC471D6
:100BF000BCF1FE6F01EB0C1102D8F0BCBDE8008126
:100C000024425CBF01F5801E9EEAC47F02D4F0BC82
:100C1000BDE80081244238D4F0BCA1F1C041BDE858
:100C20000041FFF75ABB4FEAD22242EA43524FEA51
:100C3000D323A7FB02864FEAD02040EA415007FBAE
:100C400003661EEA0E0F4FEAD12105FB026658BF6C
:100C5000A6EB0056B6EB00564FEA520E4EEAC37EA4
:100C600018EB0E0E56EB530EBDD518EB02085E4185
:100C70007F1C55F10005B6E74FF480154FF00007D3
:100C80004FF000064FF00008ADE7F0BC4FF0000059
:100C900001F1C04101F00041BDE8008111EA0C1FE3
:100CA0000CEA131500D00CE013EA0C1F00F02580AD
:100CB0004FF00000F0BC81EA030101F00041BDE803
:100CC0000081F0BCBDE8004181EA0301FFF705BBEC
:100CD000F0BCBDE8004170B500F09CF8097EFC3E18
:100CE00000F007B881EA03014FF0000001F0004175
:100CF000704781EA0301FFF7F0BAF0BCBDE800419C
:100D00004FF0000021497047FFFDFBF9F7F5F4F2C1
:100D1000F0EEEDEBE9E8E6E4E3E1E0DEDDDBDAD896
:100D2000D7D5D4D3D1D0CFCDCCCBCAC8C7C6C5C4F4
:100D3000C2C1C0BFBEBDBCBBBAB9B8B7B6B5B4B30B
:100D4000B2B1B0AFAEADACABAAA9A8A8A7A6A5A4F6
:100D5000A3A3A2A1A09F9F9E9D9C9C9B9A999998BA
:100D60009797969595949393929191908F8F8E8E5D
:100D70008D8C8C8B8B8A89898888878786858584EA
:100D800084838382828181800000FF070000F87FD6
:100D90004FEA41034FEA5353A3F58063D3F11E0397
:100DA000C8BFD3F1210C0CDD4FF0004242EAC12252
:100DB00042EA505232FA03FC8CEAE17CACEBE1707F
:100DC0007047102BC4BF0020704703F5787CBCF13E
:100DD000FF3F04D06FF0004282EA2100704770B5F7
:100DE00000F018F84992248000207047F2E7B0FA2A
:100DF00080F310FA03F10AD0C3F11D0303F58063F9
:100E00004FEA41504FEA035202EBD12170474FF0B5
:100E1000000070470EF1020E2EF0030E5EF8046B18
:100E2000364205D4012A43EB030515F5001F12D8FD
:100E3000012841EB010C1CF5001F0CD80ED14FEA24
:100E4000D17C15F5001F0CEB4C0C0CF1020C08BF0B
:100E50004CEBD37C04E04FF0080C01E04FEAD37C6C
:100E60000CEB4C0526FA05F606F00706B6F1040C65
:100E700006D20EEB860CBDE870404CF0010C6047CA
:100E8000DFE80CF0090B02024FF000414FF00000C8
:100E9000A1F5002170BD19461046012851EB01044F
:100EA00018BFD4F5001484BF002001F0004170BDCC
:100EB000DFF844C170B53CEA111418BF3CEA1315C1
:100EC00000F08F8011F1004F1CEA13150CEA111489
:100ED00068BF45F0050518BF11EA0C1F00F07980C6
:100EE0002E4621EA4C1123EA4C1341F4801143F4BD
:100EF0008013A5F58035AC423DDD801A9941A4F5FB
:100F0000803609D54042C1F1000134BFB1F1010181
:100F1000B1F1000185F0010511F4F01F08D011F4C2
:100F2000801FE8D1400041EB0101A4F58034F6E7D1
:100F300021F00041B1FA81F6202E04BFB0FA80FE04
:100F40000EF12006A6F10B06B6F1200EA4EB064426
:100F50000CD2C6F1200E01FA06F120FA0EF641EA93
:100F60000601CEF1200600FA06F003E000FA0EF1C9
:100F70004FF00000BFE750EA410E23D04FEA244E65
:100F8000BEEB254F0FDB994208BF904204D00AD335
:100F9000520043EB0303B0E74FEA1646B6EB144F9B
:100FA00008BF85F00105B4F5803401EB041181EA36
:100FB000C57100DB70BD01F1C0414FF0000001F0D0
:100FC000004170BD4FEA45714FF0000001F0004153
:100FD00070BD1CEA131F09D04FF0000001F0004162
:100FE00070BDFFF717FF00BFEDFFFF3EBDE870408B
:100FF0004FF00000014970470000FF070000F87F34
:1010000010B591EA030F48BF83F000433FF5C8AC29
:10101000841A71EB030C07D212198CF0004C43EBCD
:101020000C03001B61EB0C01DFF8A4E14FEA115443
:10103000A4EB135C1EEA430F18BF9EEA445F00F066
:10104000B08023EA6E03524221EA0451C3EB6E03DF
:1010500038BF5B1EDCF1200E25D322FA0CFE10EB0C
:101060000E0043FA0CFE41EB0E01CCF1200E03FA08
:101070000EFE10EB0E0051F10001CCF1200E29D430
:1010800012FA0EF201EB0451BDE8104058BF704750
:10109000401C1CBFB2F1004F704700280CBF491C18
:1010A00020F00100704712EB020E43EB030218BF61
:1010B0004FF0010E4EEA4202ACF1200CDCF11E0EA4
:1010C00054D943FA0CFE10EB0E0051F1FF31CCF174
:1010D0001E0ED5D50EF1010E12FA0EFE404141EB67
:1010E000010101EB445C5FEA5C5C10D910EBDE703F
:1010F00001EB045138BFBEF1004FBDE8104018BFEE
:10110000704700280CBF491C20F00100704730D206
:101110004FEAD42C11F5001124F400641BD0B1FA6D
:1011200081F20B3AA41AA41ED2F12003914030FAA6
:1011300003F31943904001EBCC71002C01EB0451F7
:10114000BDE81040A8BF704701F1C0414FF000005A
:1011500001F000417047B0FA80F310FA03F100D1BA
:1011600010BDE41A173C4805C90AE4E701EB045135
:1011700010BD491001EB0451BDE810404FEA3000AA
:1011800002E04FF0000170474A0008BF0042F8D06B
:10119000B2F5001F28BF704701F000414FF000007A
:1011A00070479EEA445F07D011EA5E0FBDE8104029
:1011B00004BF002100207047BDE8104070B5FFF764
:1011C00029FE00BF40DFF63E83F000411046704725
:1011D0000000E0FF43004FEAD30C4FEA3C0C4340D1
:1011E0001FBF40070CF1605113F0FE4F70471CF019
:1011F000006F03D100200CF0004170470CF0004359
:1012000043EA507010B540EACC0000F06EF900BF20
:10121000000000924FEA0001FFF75FB84FF0004175
:101220004FF00000A1F50021704700004FF47F0C43
:101230001CEAD0121EBF1CEAD11392EA0C0F93EAEB
:101240000C0F00F0858090EA010F48BF42F48072D5
:1012500040F4000C41F400002CF07F4120F07F406E
:1012600000B58142A2EB03020FF2081CACEB504E1A
:10127000C0F100009EF800E04FEA4E0E00FB0EFCAD
:1012800038BF49004FEA2C1C02F5FA020CFB0EF3A2
:101290004FEACE1E4FEA112C4FEAC1210EEB635EDE
:1012A00042EB22420EFB0CFC4FEA1C5300FB0311E5
:1012B0004FEA112C4FEA01310EFB0CFC4FEADC4CDB
:1012C00000FB0C11C14228BF09184CEB03335DF839
:1012D00004EB10EB410143EBC250B2F57C0F38BF79
:1012E000704729D512F0F00F1CBF00F1C04000F08C
:1012F00000407047008182838485868788898B8C33
:101300008D8E8F919293959697999A9C9D9FA0A26E
:10131000A3A5A7A8AAACAEB0B2B3B5B7B9BCBEC0BE
:10132000C2C5C7C9CCCED1D4D7D9DCDFE2E6E9EC5F
:10133000F0F3F7FAFE0000004FEA400C0CF1807C5D
:10134000BCF17E4F28BF7047B0F1C04000F013B928
:1013500090EA010F0CEAD11348BF42F48072624553
:1013600038BF634507D213F47F0F16D080EA01001F
:1013700000F00040704710B500F0B7F8097EFC3E61
:1013800000F005B880EA010000F00040704780EAF4
:10139000010000F0004000F0EEB812F47F0F04BF2F
:1013A0000248704780EA010000F0E5B80000C07F05
:1013B00041000B0ED3F19E0208D950F400034FEA0E
:1013C000032323FA02F048BF4042704710B500F0F3
:1013D0008CF800BF49922480002070476FF00042D3
:1013E00082EA2000704700004FF47F0C1CEAD01204
:1013F0001EBF1CEAD11392EA0C0F93EA0C0F00F007
:10140000478090EA010F48BF42F480724FF0004CD1
:101410004CEA00204CEA012102EB0302A0FB01137D
:10142000A2F50002002918BF43F001035B0028BFAA
:101430004FEA330342EB22425FEA132C4CEBC250DB
:101440002EBFBCEB436FB2F57C0F70474FEA036CC5
:10145000BCF1004F08BF20F00100B2F57C0F38BF8F
:1014600070470BD582F0FF0212F5803FC8BF70476E
:1014700000F1C040D8BF00F00040704700F5000CFC
:101480005FEA4C0C48BF7047B0F1C04000F073B841
:1014900090EA010F0CEAD11348BF42F48072624512
:1014A00038BF634504D280EA010000F00040704775
:1014B00010B500F01AF800BF8900013E00F007B82F
:1014C00000F009B85FEA410C5FEA1C6C08D080EAC2
:1014D000010000F050B85FEA400C5FEA1C6CF6D1E6
:1014E0004FF00040A0F5800070470EF1020E2EF084
:1014F000030E5EF8044B244204D44FEA4102B2F1D9
:101500007F4F11D84FEA4003B3F17F4F0CD80ED173
:101510004FEAD07CB2F17F4F0CEB4C0C0CF1020C7B
:1015200008BF4CEBD17C04E04FF0080C01E04FEA1F
:10153000D17C0CEB4C0324FA03F404F00704B4F15F
:10154000040C06D20EEB840CBDE810404CF0010CEC
:101550006047DFE80CF0070802024FF00040A0F5FA
:10156000800010BD0846420018BFD2F1807288BFCB
:1015700000F0004010BDFF2141EAD050C005704787
:10158000A015000000000010380000000801000055
:10159000D81500003800001060020000240100008F
:1015A00000E1F50500000000000000000000000060
:1015B000F003000060000000B0050000F00400002F
:1015C00060060000D0060000D00700007000000098
:0815D000F0070000F006000026
:04000005000001698D
:00000001FF
